:100000002AEF03F0F76A140FF66E000EF7220900CC
:10001000F5501200280C0106536E616B6520476194
:100020006D65000047616D65204F766572210000A7
:10003000EA6A730EE96EEF500EE00F0E016E006A71
:10004000002EFED7012EFBD78F0E006E002EFED79E
:100050000000EF2EF2D712007AB102D08C9001D0BE
:100060008C8095907AB302D08C9201D08C8295923C
:100070007AB502D08C9401D08C8495947AB702D052
:100080008C9601D08C869596000095988C88070EEA
:10009000006E002EFED700D095988C981200959A8D
:1000A0008C9AEF0E006E002EFED700D0775303E03F
:1000B000959A8C8A02D0959A8C9A000095988C9883
:1000C0007839796F0F0E791779C07AF0C5DF7851DA
:1000D0000F0B796F7A6FC0DF1200959A8C9A959802
:1000E0008C980F0E736FA4DF706B7051020808E3D9
:1000F000030E7A6FB1DF050E736F9ADF702BF5D7A1
:10010000020E7A6FA9DF706B705103080CE3036A6B
:10011000705178DF716F776B786FC1DF050E736F89
:1001200087DF702BF1D746EF03F0742D01D003D099
:10013000400E756F01D0756B010E735D752775519B
:100140008009766F776B786FAADF120072510C0A04
:1001500005E0060A0BE0020A0FE013D0776B010EF0
:10016000786F9DDF020E736F63DF10D0010E736F27
:10017000020E746FDADF0AD0776B100E786F8FDFA4
:1001800005D0010E776F72C078F089DFD2EF00F0F2
:100190000900F5520CE0F6CF70F0F7CF71F0F5CF13
:1001A00072F0D4D770C0F6FF71C0F7FFF1D712001C
:1001B000796B7951070818E378BF02D08A9001D093
:1001C0008A809390030E006E002EFED700D093928B
:1001D0008A82030E006E002EFED700D093928A9280
:1001E000D8907837792BE5D7120093948A94776B5F
:1001F0007751030812E3030ED8807655775D07E147
:1002000074C078F0D5DF75C078F0D2DF04D0786B99
:10021000CFDF786BCDDF772BEBD793948A841200F6
:10022000706B7051030823E30C0E746F010E756F31
:1002300070C076F0DADF0F0E746F756B70C076F0F9
:10024000D4DF0B0E746F070E756F70C076F0CDDFC4
:10025000090E746F756B70C076F0C7DF0A0E746F8D
:10026000010E756F70C076F0C0DF702BDAD759EFD2
:1002700003F0706B705103081AE3716B715107083A
:1002800014E37051080DF350736B726F036A715170
:100290007225016E735103220150480FE96E000E62
:1002A0000320EA6EEF6A712BE9D7702BE3D71200B7
:1002B0007431766F763376331F0E76177451070BD1
:1002C000776F010E786F7751016E04E0D890783720
:1002D000012EFCD7755317E07651080DF3507A6B59
:1002E000796F070ED8807355036A7925016E7A51AC
:1002F00003220150480FE96E000E0320EA6EEF5012
:100300007811EF6E17D07651080DF3507A6B796F34
:10031000070ED8807355036A7925016E7A5103223E
:100320000150480FE96E000E0320EA6E7851FF0A73
:10033000EF14EF6E1200706B70511F080FE3736BB8
:1003400070C074F0010E756FB3DF070E736F70C06D
:1003500074F0010E756FACDF702BEED7706B7051BF
:1003600007080FE370C073F0746B010E756FA0DFA8
:1003700070C073F01F0E746F010E756F99DF702BD4
:10038000EED7120072C068F069EF03F0030E446EFE
:10039000456E100E046E030E246E0F0E056E030ED6
:1003A000256E0E0E066E030E266E6AEF03F0786B56
:1003B000796B010E7A6FDA6AD96A7D6B700E7C6F89
:1003C000EA6A740EE96E7DC0E2FF7CC0E1FF7AC08C
:1003D0007BF0D890E550EE02F3507823F450792367
:1003E0007B2FF7D778C0DEFF79C078F0796BD8B073
:1003F000792B7C2BD8B47D2B7A2B7A510508E0E140
:1004000010EF02F0736B726B716B68C070F0410E8D
:10041000776FC60E766F4E0E756F6D0E746FC7D701
:1004200003C073F002C072F001C071F000C070F040
:10043000390E7027300E7123000E7223732370C0A3
:1004400068F068C001F012007251016A715D03E248
:1004500071C000F00CD0006A080E736F713700365F
:100460007251005CD8B0006E0136732FF7D71200BE
:10047000C9DF01C071F01D0E726FE6DF0050010F81
:10048000466EC0DF01C071F0050E726FDDDF0050F7
:10049000010F476E1200706B7051030823E3716BFC
:1004A000715107081DE3010E7125726F7051080D1F
:1004B000F350746B736F036A71517325016E74513D
:1004C00003220150480FE96E000E0320EA6EEFCFC1
:1004D00075F072C074F070C076F087DE712BE0D7D3
:1004E000702BDAD7120004C070F024C071F04550B0
:1004F000FC0F0AE2040FC0EF02F0710705D0712B68
:1005000003D0700701D0702B44C072F0725332E0F8
:10051000036A7251040F016E000E032203C074F0CF
:10052000010E725D036A040FE96E000E0320EA6E8D
:10053000EFCF75F074C0EAFF01C0E9FF75C0EFFFAF
:10054000036A7251240F016E000E032203C074F07F
:10055000010E725D036A240FE96E000E0320EA6E3D
:10056000EFCF75F074C0EAFF01C0E9FF75C0EFFF7F
:100570007207CCD770C004F071C024F0CDEF03F047
:10058000E824F76AF7369B0FF66E050EF7220A008D
:10059000F550FA6E0800F550F96EFA04FE040205F3
:1005A0000605706B4450705D17E2036A7051240FAA
:1005B000E96E000E0320EA6EEFCF73F0036A70510C
:1005C000040FE96E000E0320EA6EEFCF74F0010E07
:1005D000756F6EDE702BE6D7D0EF03F0045208E0A3
:1005E00004501F0805E0245203E02450070803E1EB
:1005F000010E016E20D0010E706F4450705D19E243
:10060000036A7051040FE96E000E0320EA6E045075
:10061000EF5C0DE1036A7051240FE96E000E0320B8
:10062000EA6E2450EF5C03E1010E016E04D0702BE2
:10063000E4D7000E016ED9EF03F04650045C06E1EA
:100640004750245C03E1010E016E02D0000E016EE2
:10065000E4EF03F0F86AD09E030E446E456E686BBB
:100660006A6B696BC150C00B0F09C16E070EB46E87
:10067000FF0E926E936EC150C00B0D09C16EC0503B
:10068000C00B0709C06EC08EC28027D5020E736FE3
:10069000010E746F4ADD180EF66E000EF76E78DDEF
:1006A000000E936E93928A9293908A9093948A8488
:1006B000B7D5DFDD40DEC282C2B2FED7C4CF02F0C2
:1006C000C3CF01F0C4CF71F0C3CF70F0C3CF72F0CD
:1006D00059D65CD6CDDEDFDE000E016EC250C30BF4
:1006E0000110C26E4F0E006E002EFED700D0C282E7
:1006F000C2B2FED7C4CF02F0C3CF01F002C06CF08B
:1007000001C06BF0040E016EC250C30B0110C26E2B
:100710004F0E006E002EFED700D0C282C2B2FED7AE
:10072000C4CF02F0C3CF01F002C06EF001C06DF083
:1007300093866F9181A66F816E51010808E303E1F2
:100740006D518F0804E3452C01D001D0456A6E51EC
:10075000010809E2FF0A03E16D51580804E245521D
:1007600002E0010E456E6C51010809E303E16B5193
:100770008F0805E34550030802E0030E456E6C51F7
:1007800001080AE2FF0A03E16B51580805E24550EF
:10079000020802E0020E456EA6D66BDDCCDD01D765
:1007A00047C073F046C074F0010E756F81DD73DED3
:1007B00015D7015208E0020E706FFA0E736F38DC25
:1007C000702FFBD70DD039D7015202E0442A50DEFA
:1007D000020E706F960E736F2BDC702FFBD77CD7D9
:1007E000010E736F020E746FA0DC240EF66E000E05
:0607F000F76ECEDC0300F1
:020000040030CA
:0E00000021CE3E1E0087A1000FC00FE00F4072
:00000001FF
;PIC18F4550
;CRC=E529  CREATED="27-abr.-25 09:40"
